:020000040000FA
:20000000009000208D380000E73300004730000053320000533200005332000053320000C6
:20002000533200005332000053320000533200005332000053320000533200005332000098
:20004000533200005332000053320000533200005332000053320000533200005332000078
:20006000533200005332000053320000533200005332000053320000533200005332000058
:20008000533200005332000053320000F0B58DB00446C26A016C03F050F8E16F4A1C904249
:2000A00001D93526AAE1002813D08800226C17180837891C384603F006FCA168384603F05F
:2000C00059FB002807D0E56F691C884205D9C62694E1532692E16C2690E1217866260229AC
:2000E00000D28BE1052900D988E101260329334600D30023216C0A6832405A400C9680263D
:20010000A2510990E06720463A460B4602F016FB20784000001F0C9F39468140A151216C71
:2001200020460A4603F05EF8E567E16C20463A4603F02BFBA36FE56F626EA06EE16C009502
:20014000B04DA847A36FE66FA26EE06EE16C0096A847A36FE66FA06EE26EE16C0096A84785
:20016000226B216F204602F0E8FFE56FA84201D93C2643E100280FD0A36FE26E216F606CC0
:2001800003F032FC626B216F204602F0D6FFE56FA84203D9652631E1C3262FE10646002890
:2001A0000FD0A36FA26E216FA06C03F01DFCE268E16E204602F0C1FFE56FAE4203D95C2643
:2001C0001CE156261AE126468036A36FA26EE16E206F03F009FCA36FE56FE26C206D216FC0
:2001E00003F002FCE06F421C0B963260666D00252778B81E0123194681408D4209DA616CFE
:20020000304603F04BFB0B980268900036186D1CEEE70C93A06D00250B9EBB1E0C99994015
:200220008D4206DAA16C074603F038FB03F03DFBF3E7E06D0025BB1E0C9999408D4206DA12
:20024000E16C074603F02AFB03F02FFBF3E70A9709984001421C216C08788007C60F00208B
:200260000890099003460C9F0292BA4272D93D4637460793501B0A9EB04232460B9B00D8E9
:2002800002461A6020462A4602F0FEFE09994018C1B2731E012632469A4091420C9501DA12
:2002A000084600E0404291420696354600DA002529460A9A914008180006800D001F0421CA
:2002C0008843FEB2B7005249C919089A52008918495D89004F4A925D891808180B99086056
:2002E000204600F0A3F86A0005924B480497C1198918099A8A5C4948C11920780A90801E9F
:200300000390095C0C9F7F181F233B4079098D00216C4D59DD40069805400992554005234C
:200320005D430A2070433E4A10184019142575433C4A5519039A5343EA18079BD35CC65C2A
:200340003948049A8018059A8018089A825C0892029A8AE7099801280A9810D1089880001B
:20036000C01C0B9E3060284D2046A847012030602046A847022030602046A847207899263A
:2003800003283BD3811E01200C908840FE300021C9430A910B9D0C992960C7B2002F11D0AB
:2003A0007A1C2046394601F03BF80C9828602078801E0A998140C94320463A4601F030F8CD
:2003C000781EE8E72078801E0A9F39468140CA430021099120460D4B98470C982860207870
:2003E000801E8740FA432046099F3946074B98470C9A2A6020463946044B984730460DB027
:20040000F0BDC046810700002D04000021140000423D0000C43D0000123D00002A3D000005
:20042000703B0000043A00005A3D0000F0B589B00446802025580395E06DE26F616F636C22
:2004400008930791E908531C4B43D9B28F00C0190690A807060F05A88159A36F206E009275
:20046000C44D0A46A847E06E616E08910790069105A88059A36FE26FA16C0092BE4D0A4665
:20048000A847E06E216FA26C636E08930791069205A98959E26D236EE56C08950793D21902
:2004A0000497069205AA03F06BFAB24DA847606EE16EE26C06AB07C305A88059E26F521CE9
:2004C00003F0ECF9E06E216F08900791069005A88059A36FE26F216E00920A46A64DA84764
:2004E000206FA16E08910790069005A88059A16D226E636E08930792C919069105A9895966
:20050000A26CE36C656F08920795069305AA03F037FA984DA847206E616F0891079006910F
:2005200005A88059A36FA16EE26F00920A46924DA847234660330ECB08920791069305A8C6
:200540008759E56C606F08900795069105A9895908930790069205A88259A36FE06F0090FD
:200560003846844DA847226E606E616F06AB07C305A88559A36FE16EE06F009028467E4F8E
:20058000B847A36FE06F226D216E00902846B847E06C616E226E06AB07C305A88159E06EE5
:2005A000626FA36E06AD0DC505A88059A36FE26F00920A466F4DA847616EA26DE56E089590
:2005C000049FD2190792069105A988590290216F226E636F08930792069105A98959E26DA0
:2005E000636C0893D2190792069505AA03F0C8F9604DA847606EE16DE26E0892C9190791F3
:20060000069005A88059E16F4A1C029903F046F9E06E216D08910790069105A88159206E83
:20062000226F08920790069205A88059A36FE26F00920A46504DA847606E616FA26E06ABAA
:2006400007C305A88059216EE36E08930791069205A98A59A36FE16F0091484D0146A84750
:20066000226F216E206D08900791069205A88059636E06AD0EC505A98959636CA76E08921A
:200680000797069305AA03F076F93A4DA847616F606D626C0892049D40190790069105A8C2
:2006A0008059A26E08920791069205A98959226FE36E08930792069305AA03F05CF92F4FD3
:2006C000B847E16E606F08900791069005A88059626D636C089352190792069305AA03F039
:2006E0004AF9264FB847616FA06EE26E08920790069105A88059636D0891079259190691BC
:2007000005A98959636E276E08970793069205AA03F031F9174FB847616FA06DA26C08925C
:2007200040190790069105A880590490A06EE26E636E079306920425039F3D402D1D05AF71
:200740007F5908970790069105A88159206F276E0792069305AA525908920797069005A842
:200760008259A36FE06F00900498044CA04709B0F0BDC0468107000025090000AD09000002
:20078000F8B444464D4656465F46F0B400B501B40B9B5B005B1C6C469B00E31A9D4610B4D8
:2007A0006C46241D00266D46009CE36A2D1D9B00EE505B00EE50E36A013B9B0098465B006B
:2007C0009946002300240025002702E0370040463F1A9A46A346AC46B646F01B1458C85960
:2007E000030C80B2250CA4B21E006E436343454360431C041B0C00195E412C042D0C001910
:200800006E4153465C4665461B1874410020454176460437474501DCB742DADD6846001DDA
:20082000835123462C46002504364645CCDD4E45CCDD8351009B9969083102464E4604367A
:200840001068009B9C6924684443A14600270023002400259A46A346AC46B6464C46C85989
:20086000030C80B2250CA4B21E006E436343454360431C041B0C00195E412C042D0C00198F
:200880006E4153465C4665461B18744100204541D0591B18002044414541002F02D0043F6A
:2008A000D35104370437764623462C4600254745D0DD301D8742EBDD043FD351043E464597
:2008C00000DDBDE710BC2068E36A9B46024691466846012720C840C97F08B5417F4120C210
:2008E000013BF7D105682F430126F741FF17FE4368463840494631400843494639406D4633
:20090000354029435B4604C904C0013BFBD1A54603BC8E46F0BCA046A946B246BB46F8BC10
:200920007047C046F0B444464D46564670B48146079CA246002720C940CA7F0875417F4110
:2009400020C0013CF7D1B8464846083354466A46A400141BA54604B46A46121D544601278A
:2009600020C840CB7F08B5417F4120C2013CF7D1424617430126F741FF17FE43484669468B
:20098000091D0D46384031400843494631403D402943544604C904C0013CFBD101BC854605
:2009A00070BCA046A946B246F0BC7047F0B444464D46564670B48146079CA246012720C9F7
:2009C00040CA7F08B5417F4120C0013CF7D1B8464846083354466A46A400141BA54604B464
:2009E0006A46121D5446002720C840CB7F0875417F4120C2013CF7D147460126F741FF177E
:200A0000FE4348466946091D0D463040394008434946394035402943544604C904C0013C5A
:200A2000FBD101BC854670BCA046A946B246F0BC7047C046F0B444464D4630B488469946AE
:200A40006C469B00E31A9D4610B46C46241D4B460832012720C940CA7F08B5417F4120C4AB
:200A6000013BF7D16A46121D0125EF41FF17FD43414629403A4011434B4610C910C0013BB3
:200A8000FBD101BC854630BCA046A946F0BC7047F0B58FB00E9316460D9104468168856A3D
:200AA000284602F08CFDE067002804D00746FF2803D9282043E16C2041E1287AC00701D165
:200AC00082203CE1781C81006858002839D0099615980B9020460E460C9129463A4601F033
:200AE0003BFBF8000895451908352046294601F09DFBA36FE06F0090A819061D3046294678
:200B00002A46FFF70FFFE06F4001802160500C983018011D20460A9632460E462B4601F042
:200B200039FD0146E06F421C284602F0B7FE204631460B9A02F001FBE26F904203D92220C5
:200B4000FDE02320FBE0002833D00C9830180690314607960B9525468035A36F00920A9ECD
:200B600030460B9AFFF70CFE2078801E0321059181400C31049529602046314600F038FD48
:200B80000146E06F421C304602F088FEA36FE06F00900798069D31460B9AFFF7F1FD2046DA
:200BA00029460E9A02F0C9FAE16F884203D92720C5E02120C3E000282DD02E4614980390CB
:200BC0000C9828180E90A36F00910B9D28463146079AFFF7D5FD01222046314602F0D5FD36
:200BE000A36FE06F00900E9829463246FFF7C8FDE16F02C5A26FE36F029528460E99FFF7A0
:200C000019FF20463146039A02F097FAE16F884203D9112093E0722091E0002800D18DE0BC
:200C20000C9A0E988018801880180C90A36F00910A9E3046069D2946079AFFF7A1FD0122D9
:200C40002046294602F0A1FDA36FE06F00900E9831462A46FFF794FDE16F3046079E02C0FD
:200C6000A26FE36F01900E99FFF7E4FE6069A1690C9AA2620B9DE56220636163204601F0F7
:200C800081F999285BD102F0C6FD41180C31304602F004FE02F0A3FC41180C31069802F081
:200CA000FDFD2046FFF7F2F9992848D120460E9902F0D0FA0A98E0620D98206309986063E0
:200CC00002F0A9FD40180C30314602F0E7FD02F086FC40180C30069902F0E0FD2046FFF7C9
:200CE000D5F999282BD178000D900220049908600026204631460E9A00F092FBA5630A985B
:200D0000E063204600F0CCFF089DA562E76FA168284602F054FC0246E0672046294601F05F
:200D20001BFA0D983818800040190C30791CE26F531C994206D240C0491CF8E71220C0B2A4
:200D40000FB0F0BD0A9D2A60A26FE36F01980299FFF770FEE06F421C2846039902F0A6FCB0
:200D600001465A200029EAD0C043E8E7F0B5FFB08CB00493154606468A910468204602F050
:200D8000BEFD002189912218909800900292944244D285A80022027303928592641C0F46A6
:200DA000601E0078002834D0252806D034602946049A9047641C7F1CF2E7601C01903060E5
:200DC0008997207885A908730399CB43732809D18AA989AA28461C46049B00F021F823464C
:200DE000899911E005AC85A98AAA2046039300F035F8024620462946009B9847039B411C22
:200E0000194600D0C1198991029A019C481CBED100E03B4618467FB00CB0F0BD0B46F9E7FB
:200E2000F8B504460868051D0D600668002E11D0009414461D46304602F061FD0746206853
:200E4000C01920600024BC4207DA305D0099A847641CF8E7002021469847F8BDF0B585B0CD
:200E600000920E46044600250395FF270197FE372022394602F00CFC0295E5557F208000E7
:200E800020180490317B252950D0E719782915D0642913D06F2911D06329019B1FD1009D48
:200EA00029680A1D2A60096801701846FC3020180490C8B241424141029110E003A904AA5C
:200EC0003046009B00F038F803980028019B06D004982D210170401E0021029100E00498C3
:200EE000391A0029254601DC611A4D1C411C5B0000262846324602F01AFB029F002F01D0DE
:200F00000670401CA04206D8211A491C401E202202F0BEFB2670291B2022204602F0B8FB2D
:200F2000204602F0ECFCC01905B0F0BD00206070252020700120F7E7F8B514460D460646CC
:200F4000077B194600F014F8317B642904D1002802D50121296040426F2F01D00A2100E000
:200F60000821782F00D11021224600F011F8F8BD007B642805D06F2803D0782801D070283A
:200F800004D10868021D0A600068704700207047F8B514460D460646002804D12068411E03
:200FA0002160302101700A4F002E0DD03046294600F010F821684A1E22602A464243B21A79
:200FC000BA5C0A700646EFE7206802F098FCF8BDF03C000080B5102903D0082903D1C00862
:200FE00080BD000980BD02F02FF880BDF0B58FB006910446844800680B906021204602F0AB
:201000004FFB099420340025814F824E022D10D0284602F05FFCC0B2214602F025FA0028F4
:2010200004D07A483946324601F0CAFF2C346D1CECE70024099E3546022C0DD000233046C3
:2010400021462A4602F0EAF8002802D12C35641CF2E7002C00D1C5E00CA8002707803446B2
:201060003D46022D0CD0216A204602F0E9F9002803D00CA8012141557F1C2C346D1CF0E75B
:20108000002F00D19CE0002005900897B84200D198E00A9000203146024603461E461546BC
:2010A000022822D00CAA125C002A08D0002E09D0327D0B7D934202460B4605D807D22A461C
:2010C000334601E002460B462C31401CE6E7727D4B7D934202460B46F6D8F0D3F28ACB8A10
:2010E000934202460B46EAD9EEE74748046800273846294602F0F5FBC0B20DA902F0B4F932
:20110000002851D12C206843099908180B9000242046294602F0E5FBC0B20EA902F0A4F9AE
:20112000002826D00B9A107CC00637D40D9B012007900002384900910190029403940494C5
:2011400020462146144600F06BF80B900D9920460C4602F075F9002804D0304800680B993C
:2011600081421DD0A2680021204601F093FE079815E00E9802F07AFB079404460E9801F08F
:20118000F8FF079803460B9A042807D0115C401CA142F9D0401E03281C46C4D901200B900F
:2011A0000D9801F0E6FF0B9C1C48006884420B940AD00CA847550A98401C099E089F65E71A
:2011C000032712E0059F10E0002E0DD0069A16602C206843099E3018006A4178117140680B
:2011E000906002E0074600E0099E4C2420460C3004D0305901F0BDFF2C3CF7E7002F0B9815
:2012000000D038460FB0F0BD54250020D73A0000DF3A0000F4080000202100205825002057
:20122000F0B5C1B00793144678480068029002F071FA4898002804D04999012901DB02F0D7
:2012400075FA4A98039047980690469F2089E168081804946189401800260590B04213D9CB
:20126000801B069CA04200D80446079831463A46234602F0C3F900280BD13846214602F0A5
:2012800055FAA6190598E9E708A802F037FA002500E0054601F033F8002D00D0B2E003986A
:2012A000002803D008A9202202F096FB0026009630A8574B0499079A01F01EF905460028CE
:2012C00000D09FE0534800680690F7433C4605960396264630A838A937AA36AB01F066F800
:2012E000002800D57EE000D07EE036A8008822281ED1002E3C46ECD4069886423C46E8DAAC
:2013000037A80388802B00D976E0389910AA079802F074F9002865D137A80388F0B2009006
:2013200008A8202110AA00F0BBFB02903C46D0E701281CD010283446CBD137A8008820287F
:201340005AD1389910AA2023079802F057F9002848D108A810A9202202F032FB05462E48E7
:2013600000680121059185423446B2D04AE037A80388202B40D8389910AA079802F03EF940
:2013800000282FD137A80578202D3C46A1D8039C0495069884421FDAE00020490D5808181E
:2013A000466802F0B7F931682846049D02F0BEF939A802F0A3F9002D10D010A839A92A4606
:2013C00003780E789E4205D1521E491C401C002AF6D104E0641CDCE73C4600E0002400F097
:2013E0008EFF76E705460DE00598002806D00A480068029F874203D13D4603E0012501E0CB
:2014000002480568284641B0F0BDC04654250020FFFF0000CC3D000058250020B43D0000D5
:20142000FEB51646044680202058E76F7A1C022808D001280CD0002815D1666CA06C0190CB
:20144000E06C03E0900033180193181802900DE05643B000636DA66DE56D2D180295351898
:2014600001951E1802E0002601960296A36FE06EE56D009751438F00E9195B4D0A46A84714
:20148000A36FE16FE26E206E00913146A84702F013FA0199A8472E46A36FE56FE26E216FD3
:2014A000606E0095B0473546A36FE16FE06E0091029E31463246A847A36FE16FE26E206F57
:2014C000656D0091E919484DA847474DA36FE06F616DA26D0090C819D1193246A847A36F7D
:2014E000E06FE26E616DA56D0090E819C9193E4DA847A36FE06F226E216F656D0090E8199C
:201500003A4DA84702F0D8F93146374EB047A36FE06F226F616DE56D0090E819C919B04723
:20152000A36FE16F626E206FA56D0091E9192F4DA847A36FE16FE06E626D0091D1190A4690
:20154000B047A36FE26F216FA06E00920A46B047A36FE06FE26E216EA56D0090E819B047E0
:20156000A36FE26FE16E206E656D0092EA19B047A36FE16F226EA06E009101461B4EB04795
:20158000A36FE16FE06EA26D0091D1190A46FFF7C9F9A36FE06FA16EE26E656D0090E819E6
:2015A000B047A36FE16FA06E626DA56D0091E919D219B047216F2546743529CDA26E00952F
:2015C000094EB047A36FE56F226E616EE06E0095B047616FA36FE06FE26EA46D0090E01903
:2015E000024CA047FEBDC04681070000AD090000F0B589B00391C16F082901D3052600E005
:201600000426032900D2032602468032089200220123079008981CB2A64209D3641E01252E
:20162000A540EC1C0568A54200D31A465B1CF2E7D0B2441E01274B1C9A00A3409B00039DBB
:20164000EB1804939E18B21806920290022807D30798836F0091069829462A46FFF790F825
:201660003846A04005902C46079D38B2059981420FDDAB6FE86F009080000019001D21460C
:20168000069AFFF77DF8E86F80000019041D7F1CEBE7A86F8468A01E0899086028460699EA
:2016A0000F4602F089F9611E484248410121EA6F0BB29A4210D9AC6F9A0013199B68C4B278
:2016C000012C06D10020002B01D05B1E01E0C3430120BB50491CEAE7521C0498039902F090
:2016E000DDF8A96FE86F820051184A6800213B46002A02D0491C5208FAE7400141182239D6
:201700000498044608B200284FD41F2008408AB20F46510989005958C140C80738D00597BE
:201720000898029901602846194601F0C3F9049000252746E8B20899096881420CD907987A
:20174000836FC06F0090304639463A46FFF718F86D1C34463E46ECE7079DAB6FE86F00905E
:201760000499491E8AB2D20B8918490889B2401C4843800003990A1830463946FFF700F817
:20178000089800880599091A30463E46069BB8E7AB6FE86F0090304621462246FEF7F0FFFC
:2017A000069B791E30462646ABE7E86F421C039D2846214602F072F8284609B0F0BD70476C
:2017C000F0B58FB00D920C910446406802F00AF9A56A861CB101284601F062FF61682846A8
:2017E00001F0EDFE02460E902046294600F0B4FCB600AD19594A28460C999047AF19384663
:201800000D99564A90470B96B8190D9461680C90524A90470E9E2846314601F0C1FF002856
:2018200001D0132098E03846314601F0B9FF002801D0142090E009970B9F0C9BD81905907A
:20184000C0190890C019C019C0190490C0190790C0192C460690C519E9190D980A9122461F
:2018600000F0E2FE01461120012975D102940395B4000A99095900296ED10A9E30460B999F
:2018800001F00EFF0D983146099A0C9B00F0CCFE0146122001295FD10A99091909680029F8
:2018A0005AD10B980A9908180C900D9EB36FF06FF26900902A4D059C20460299A847B36FBA
:2018C000F06FF269009008980999A847B36FF06F0090049D284621462246214FB847B36F0D
:2018E000F06F00900798294622461D4DA8472F46B36FF06F326A0090069D284621463C460E
:20190000B84728210A9F384601F0CAFEB36FF06F0090384607992A46FFF704F8B36FF06F8D
:20192000726A009038463946FEF7FCFFB36FF06F0090039E304608990A46A0470C980B9906
:2019400001F0AEFE304639460E9A01F0AFFE002801D1152000E016200FB0F0BD7537000052
:2019600081070000FEB5002907D00D460646464F0024072F03D8204603E0002481E0384677
:20198000083885427DD8414800688047701E08210642304600D00846072E00D80846E91D3F
:2019A000029107213A4A1378002B1BD1072F01D8002301E03B46083B2546002B04D1364B83
:2019C00000241C602C460BE0324B00249C60324E3360072F01D8274600E0083F2C461F60C6
:2019E000012313700094029A8A43029241420191421E294C2568002D35D02C460834161929
:201A000001990E40B44210D02B4610333746083F9F4201D23618F9E7029973182F680121CF
:201A20008F43E1199942E5D306E0296801239943029B9942DEDB2646284601F00DFEA642E1
:201A400016D0301B014608392A6829600123DC432240101A184321406C18A060284601F044
:201A600017FD083405E00D4800688047009C08E02C462046029901F0B3F80848006880479B
:201A800008342046FEBDC046002000006025002068250020000000209023002064250020D5
:201AA000F0B597B01E4617460D4601901C98C00038490A581292081840680068111812A887
:201AC00016AA302301F020FD002804D00020C443204617B0F0BD169812990C1812A802AA05
:201AE00013AB214600F0E6FD0028EFD103980728ECD104982849072201F0F2FD0028E5D18B
:201B000014980828E2D115982449082201F0E8FD0028DBD112A816AA214601F035FC00281D
:201B2000D4D116994129D1D112984118A142CDD101780429CAD1401C12901397BC1913A848
:201B400016AA3023214601F0DFFC0028BED1169813990818A042B9D802A813A9224601F0DC
:201B600049F90028B2D102A8203013A9224601F041F90021CC43202DAAD10028A8D100F0A6
:201B80007AFA129802AA019901F0E2F80446FFF716FE9DE7B43D0000BC3D0000A83D00006F
:201BA000F8B5002872D00446394800688047083C38480025A04207D20168012291434118B7
:201BC000083105460846F5E7324A3349072901D98A18083A016801270B46BB43C618083675
:201BE000964200D90026A0424DD1C8074BD0002D0AD029683940284600D00020002E06D1B0
:201C0000002932D100260BE0002E2ED000203178C907314600D0002100280FD00E460546B4
:201C2000284601F019FD002E0CD10120C043216801402A6808320240501813E0002500297F
:201C40002F4612D0304601F007FD0120C043002F0FD0216801402A681032024051183268AD
:201C60000240881828602C460AE020680121884305E031680140226808320240501820607C
:201C8000204601F005FC054800688047F8BDC0466025002000000020002000006425002027
:201CA000FEB50446C06F451C8027E551266C616D374B304602962A469847E259361DA80045
:201CC00030180190A16D324B9847E259E8003518E16D28462E4B98472078801E0321814022
:201CE000C81DE05120462946FFF782FC606EA36FE16F0091274F29462A46B847A36FE16F0E
:201D0000206E626E00912946B847A36FE06F226E00902846019E3146B847A36FE06F626E31
:201D2000009030460299B8476168A06F01F047FCA16FE26F204600F00FFA216F012220461E
:201D400001F023FDA36FE16F226FA06E00913146B847A26FE36FA16E3046FEF76BFEA16B18
:201D60002046324601F0AFFCE06E226FA36FE16F00912946B847A26FE36FE16E2846FEF794
:201D800059FEE16B20462A4601F09DFCFEBDC0469D38000081070000F0B585B00D460646A9
:201DA000394800688047284600F0B6FE0021CC43002863D0A868EA68735C491C002BFBD149
:201DC0006B6907273B40491E042B009401910DD100240F46002F49D0311928683A4601F0E0
:201DE0007FFB002844D43F1A0419F3E70297131A0C460395002C39D09C421F4600D827466C
:201E00006969029A11400229049311D1002F07D00021725C0A2A06D0491C8F42F9D107E079
:201E200000252F4605E0721802D04F1C012500E0002531463A4601F0CFFD03998868C01918
:201E40008860E41BF619002D0D46049B01D1DB1BD0D1284600F0A6FF002809D168692021ED
:201E600001436961A868E9680B1AC3E7019C05E001208002696901436961009C03480068D0
:201E80008047204605B0F0BD6025002064250020F0B5FFB0FFB0D3B0054631A80321018016
:201EA00053A93B912D493A912D4939912D4938912D4937912D4936912D4935912D493491A8
:201EC0002D4933912D4932912C305C2101F0E8FB0920C44328684168412939D10068007825
:201EE000042835D1082028901F9016900D900490686816A9091D224FB847A8680DA9091D39
:201F0000B847E86804A9091DB8472868006828AE311D401CB847286800681FAD291D2130CE
:201F2000B84731A831462A46FFF74AFC16280ED104A801900DA8009031A828A91FAA16ABD3
:201F4000FEF7A6FD0024A52802D0E44300E0093420467FB07FB053B0F0BDC046183C000014
:201F6000D03B0000843C0000603C00003C3C0000F43B0000AC3B0000A83C0000CC3C000080
:201F8000B9330000F0B587B00446806AA067616801F015FBE067002804D00246FF2803D9E6
:201FA000D22066E0082064E0A16F087AC00701D1DC205EE090000B185B68002B58D0D3007C
:201FC0005B18083304931D180835561CB0002B1803931B180693069B1B1802931F18059747
:201FE0002778BF1EBE40B600059B9F19BB190193049B23646564039BA364069BE364029BD8
:202000002365059B6365A765019BE3659B1906931D182E1837183B1818180590069820668D
:202020006566A666E766236705986067204600F093F8E16C204600F0F9F8A36FE26FE16C69
:20204000206E00920A46FEF76DFCE06F400180216050226E656EA16E20462B4600F09AFA04
:202060000146E06F421C284601F018FC992000E0302007B0F0BD7047F0B585B00493164628
:202080000F4605463048006880470024E1432868401C04D0042E049B03D0002B01D10C46FE
:2020A00046E002976F6968682A1D0392002801910CD0390703D5401EFFF772FD049B039832
:2020C000046044608460C460082087430120002E014600D03146072297430F436F61190AD9
:2020E0001E4600D006020298002806D0012B04D00298401C039908600CE0761C304601F02D
:202100002FFC03990860002818D008210F436F61401C68608119491EA860E96028610B48E3
:2021200000688047084800688047094809490160064800688047204605B0F0BD0120800205
:2021400007436F61019CF3E760250020642500204C25002089320000F0B585B00092049054
:2021600003918E68C8680024B51C074603460190674128463946324601F0FEF901F0F6FBB2
:2021800005460F4602963246019B01F0F5F901F0EDFB05460F463246019E334601F0ECF935
:2021A00001F0E4FB01F0F1FB01F0E0FB01F0EDFB801C61412A463B46009F01F0DDF9039B9A
:2021C00003C3B800083BC1184968CA0F049D6A70002911D419460831002202243B46002BC6
:2021E0001ED00D68ED43EE0F6D002C190C505641091D5B1E3446F2E71946083101233A467C
:202200002546002A0CD00E68F643F6180E501D436B1E9D41734273412B40091D521EEFE72B
:20222000049803998167C76705B0F0BDFEB50D460446022000900290E06F801C0299814211
:2022400002D201F0DFFAF6E701222046294601F09CFAA36F0833204629462A4600F0D2FE32
:2022600001F0F4FA02D001F066FB01468020215001F095FB01F065FBE06F800000272F50BC
:20228000029726468036E06FC10E09074942029A8A4228D20190019801280FDB0198800012
:2022A00028580004019989004919891E098840180199890068500198401EEBE7286800044D
:2022C000286001F0C3FA02D001F035FB0146316001F065FB01F035FBE06F80002F500298A3
:2022E000401C0290CFE700990291801C0299814204D201F087FA0290E06FF6E7FEBD70479C
:20230000FCB5034604680D1B5F20C043012D0ADB2678370608D4651C1D6026781660491B6D
:202320008E4200D80020FCBD7F273E40761E032E31D8B60001A7BE59B746C0464D23000042
:202340009B2300005923000071230000022DEAD36678A51C1D60E1E7042DE4D3E578019504
:20236000A7786678251D1D6033043C02E3180FE0052DD8D325790195E5780095A778667842
:20238000651D1D6033063C04E318009C24021B19019C1E19C2E7001FFCBD032DC3D3A6789B
:2023A0006778E51C1D603B029E19B7E7F0B585B00026F743002834D004460068002830D0EE
:2023C000606800282DD0019302910392216960690125814226D220684089002804D0E0688B
:2023E000814201D1091D2161606804AA042301F005F9002815D1A07A002803D0E06821691F
:2024000081420FD22089124988420ED004A9098881420AD0206904A949880818011D2161CA
:20242000D5E73D46284605B0F0BD0199002901D0049808802069001D0299086004A84088B8
:202440000399088021694018001D20613546E9E7FFFF0000F0B58B4200D1824204D90B00A0
:2024600002000021002040E0002B00D1002A0CD10B00020000210020002B00D1002A01D0B1
:20248000C943C04300F099F92FE01C0015000B0002000CB4002126002F00FF19764102D285
:2024A000491C4029F9D100201E001700FF19764102D2401C4028F9D10E1A2100280032005B
:2024C00001F0ACF80C0005000CBC00200021A34200D1AA4201D3521BA341404149416D0806
:2024E000E7073D436408761EF1D5059F002F01D03A607B60F0BD7047F0B585B00024E74303
:20250000002812D00E4600290FD0002A0DD0054603933089F1680918104604AA042302907D
:20252000019101F06BF8002802D0384605B0F0BD708904A90988164B5A1C9142039A11D17B
:2025400004A949888842F0D10199091804AA0423029801F053F80028E7D104A80188039A5A
:202560000B4B01E00028E0D19942DED10A98A8722A812E60029868600199081D2861708929
:202580000818E86004A94988401868612746CCE707690000F0B587B01E460F460446836FD3
:2025A000C06F0090084611460292FEF7E9F8802005942058049001200390C40700210A4618
:2025C000002C2ED0002A06920DD00598836FC06F009030460D4639463A46FEF7D1F82946EF
:2025E00030463E460746254604980540002911D0002D11D00598836FC06F009030460691D5
:202600003946029AFEF7BCF806993846039A3746064603E0069A01E00025039A2943640875
:20262000CEE7384607B0F0BDFFB5029000921468250C01931E68F7433F0C7D191C4FB743E4
:20264000A4B2E419641C260CA81903900604A4B234190C60012087B2029AD46F651CBD424F
:202660001AD9BF00009AD459250C019AD2590E46D3431B0C5B190E4D9543A1B2039A120CA4
:20268000891849190A0C9A180392130489B25A183146F251401CDEE7A0000A58521C01D0FA
:2026A000002003E0081800210160012004B0F0BDFFFF0000FEB51C4617460E46054602AA38
:2026C000302300F021FF002800D0FEBD2868311A6522D243012929DB019201783A4602C2EF
:2026E0000299461806232846314600F00DFF0028EBD12868B8607868296808182860B04240
:2027000016D00178401C2860224602C228463146FFF7F6FD0028D8D12868A06060682968C2
:2027200008182860B04207D00198FEBD901DFEBD0C21204601F048F80020FEBDF0B586B0F2
:202740000593049280220290805882B20192000C009000273C463D46009E0298C06F854282
:2027600026D2049A01CA04920391010C019A13464B43DB1987B2104678430019059A10CA6F
:202780000592A2B28018020C9A18130C7143591892B27743230CFB189A18130CC9188CB282
:2027A0000F0C110480B20818039901C16D1CD4E738042043086006B0F0BD7047FEB50446D7
:2027C0000025EF430168481C06D002916669204600F0E8FA002802D03D462846FEBD01209E
:2027E000000306400196207D000707D56068401EFFF7D6F960690821884360616560A56046
:20280000E560206800F01EFB0546276001980028E3D0064800688047029800010449081817
:2028200001F0D6F8034800688047D6E7602500202022002064250020F8B50446154F3868F7
:202840008047002C04D0204600F0ACFA04461BE0114800680024114D0094844213DA296855
:20286000491C0DD038688047284600F09BFA06460B4800688047009830430090064800689D
:202880001835641CE9E7009C0548006880472046F8BDC046602500205C2500209423002045
:2028A0006425002070B514460D4606461648006880473068401C1FD0012C08D1307DC00668
:2028C00005D5B068002802D040193169451A304600F068FA05204002716981437161306883
:2028E0002946224600F0E8FD0446084800688047601C06D0002404E004480068804700206E
:20290000C443204670BDC0466025002064250020FEB5044600680026815D002903D03A2901
:2029200003D0761CF8E7144D23E08719124D20D0082E00DB0826002E11D06A463146037810
:202940001370002B05D0521C491E401C0029F6D105E0022903D3501C491E00F0A1FE6846DD
:202960000021815500F006FC002802D0791C216005462846FEBDC04684240020F8B5174612
:202980000E460546144800688047380A134CE071A771300E6071300C2071300AE070A67087
:2029A000280A60702570F420002521462A462B4600F09EFC2046294600F080FCE578A678B9
:2029C000277864780648006880472002C0193104401829064018F8BD6025002088230020CB
:2029E0006425002070B59AB00D46064614480068804701AC2046314600F07AFF304600F03C
:202A00008CFF06460019401C294600F071FF284600F083FF3018831CF7200A4D294622468F
:202A200000F066FC0021284600F048FC2C786D780548006880472802001900B21AB070BD90
:202A4000602500208823002064250020F0B5184A0378401C0024082CFAD00578DE070DD11D
:202A60002D0147783E0976190F253D40ED1C122D0AD185782F0609D4C01C0DE0401C0D700E
:202A8000491C641C5B08E6E7801C06E07F273D40C778FF017D19001D1235964207D0F6435B
:202AA000002DEED08F5D0F706D1E491CF8E7F0BDFF0F0000FCB58023C45880300023DF43D1
:202AC000944205D90B68541C0460A740BB431AE0521C161B1F25730901952E40DBB29B0091
:202AE0000093CB58F3403D46A540AB433519212D09D3019D2A409740009D69184968B94375
:202B0000A21A9140CB18611EDA0703D10160491E5B08F9E7D8B2FCBD10B50446016800202B
:202B2000491C25D06269D10623D4100605D500210222204600F048FF6269900604D4500641
:202B400002D52020024362616168012000290DD1042111400AD10720024001200302002164
:202B60002046FFF789FA014640424841E168216110BD012189020A43626110BD1FB500F03E
:202B800079FD00F07BFE01A800F068FE002816D1019800681149884211D17D2082000F20F3
:202BA000032100F0D9FB0198008903990A5882F30888081840688047002004B010BD00F0E8
:202BC00059FD0E240A213222204600F0C5FB7D20C2000221204600F0BFFBF2E73DB8F396EF
:202BE000F8B50446026801251046A843401A102821D366180838B060A84308363718083702
:202C00000E480F4A072A01D910180838009187420DD23878C0070AD1384600F01DFDE84354
:202C20003968014032680832024050183060304600F02EFC009A2A432260F8BD00000020B6
:202C400000200000F8B514460F460646114800688047380A104DE870AF70200A68702C7070
:202C60000023F05C5B1C0028FBD1F0202946324600F03EFB0021284600F020FB2E786D7835
:202C80000648006880472802801900B2002800D42046F8BD60250020882300206425002012
:202CA000F8B517460C460546104800688047380A01D001200702380A0D4EF070B770280A53
:202CC00070703570F22000223146134600F010FB3046214600F0F2FA347875780548006869
:202CE00080472802001900B2F8BDC046602500208823002064250020F8B515460C4606469E
:202D0000104800688047280A01D001200502280A0D4FF870BD70300A78703E70F32039467C
:202D200022462B4600F0E4FA0021384600F0C6FA3C787D780548006880472802001900B283
:202D4000F8BDC046602500208823002064250020F0B599B014460191074602AE0420307004
:202D6000701C202539462A4600F036FE30462130203739462A4600F02FFE17AD41222846B0
:202D8000314600F02DFE01981490139515942034169413A8FFF77CF8002801D00020C043D4
:202DA00019B0F0BD70B504460025EE430068411C17D0616863699A060AD5002908D0A2680D
:202DC000521A05D000F08CFB00280DD463696168A1602161580605D53020834300256361E3
:202DE00000E03546284670BD01208002636903433546F4E77CB513460C46064601AA0225D8
:202E0000084619462B4600F07FFB002801D0E8437CBD019D202D05D320684119203920228D
:202E2000304608E02020411B304600F039FC701B203021682A4600F0CFFD2068401920600C
:202E400000207CBD70B50026F44300281AD40546092817D80C4800688047E8000B4A1158ED
:202E600000290CD015186868096988470446401C05D028682E6041890122914341810448A7
:202E800000688047204670BD60250020FC24002064250020FEB50025EC4343787F2B19D18C
:202EA0000195029440684518AC180B4FA54210D23E6800203860094802680948294690474A
:202EC0003E6000060121C9026D180028EED0029C00E0019C2046FEBD244402405800000FA9
:202EE0008FA0E3B7F0B58023C3581C0C15682E0CA4199BB2ADB25D192B0CE3181C04ADB237
:202F000064190C600124E5B21B0CC66FAE420CD9AD005659370CB6B2F618330CDB191F0470
:202F2000B6B2BE194E51641CEDE71846F0BD7047B0B505460D4800688047280A0C4C60700F
:202F40002570F120002521462A462B4600F0D0F92046294600F0B2F9257864780548006807
:202F600080472002401900B2B0BDC046602500208823002064250020B0B504460D48006865
:202F800080470023E05C5B1C0028FBD1F5200A4D2946224600F0ACF90021284600F08EF9C2
:202FA0002C786D780548006880472802001900B2B0BDC0466025002088230020642500208B
:202FC000F8B516460C46054600F0A0FC0746204600F09CFC3818263000F0C2FC002808D030
:202FE0000746009605492A46234600F0DFF8384600E0034800F0A6FBF8BDC046433B00008D
:203000002B3B0000FEB500AC0EC4014600252846AEB2CF6FB74215D9B600019A97593C0C31
:20302000029A93591A0C1219BCB220189BB2C018030CD218130480B21818009B9851100CDA
:203040006D1CE5E7FEBDFEE71CB50A0017D000230124E407A04200D20400944201D95200CC
:20306000FBE790425B41904200D3801A914201D25208F6E719000200080011001CBD0100D6
:203080000020FFF738FA1CBDF0B51F23134080240659F4185209D2B292008958D940002536
:2030A000ED432F46B740B943212C09D3203CA540006C10184068A8432022D21A9040411890
:2030C000C8B2F0BD70B50A480A4C84420CD00A4D0A4EB54208D003CD02789200A258083DC1
:2030E000401C90470835F4E700BF00BF70BDC0464C3E0000403E0000543E0000643E000098
:20310000FCB4020C0B0CFF242402FF34204021400C00444315005D4306005E430F00574305
:20312000320C3B0CA818C01832043B040025A1186841C9186841FCBC704770B510CAC36F4C
:203140005B1C9C4200D823460C461D46002D03D040CA40C46D1EF9E79A0089181A46C46FDD
:20316000641CA24203D2002410C1521CF7E7184670BD704770B5014602780020002A11D082
:20318000094B1A4628321C467834A2420AD000240D5D165D002E02D0641CAE42F8D0AE422C
:2031A000F0D1104670BDC0468424002082B0F8B5069207930291019006A9039107480090A6
:2031C00002A801AA064BFDF7D1FD0021019A117004B080BC02BC02B00847C0465D37000001
:2031E00095390000F0B58023C358DC431368DD430023641B0C601C465C410125EEB2C76FDB
:20320000B74209D9B6009759E7191C465C417F1E8F515C416D1CF1E7E043F0BD1CB51446B8
:20322000002000F05EFBC0B201A900F01DF9002801D0012408E0019800212023224600F0A8
:20324000DDF90446401E84410198FFF792FF20461CBDFEE7F8B50D460446C06F421C802769
:20326000E251616D074E2846B047E25990002D18A16D2846B047E25990002818E16DB047C0
:20328000F8BDC0469D38000070B50A4C2046FFF795FA1834084D28680126864209DA2168AC
:2032A000002903D42046FFF789FA28681834761CF3E770BD942300205C250020B0B50B4A88
:2032C00013680024082C04D015192D790555641CF8E7002908D00C32002B05D0107808707B
:2032E000521C5B1E491CF7E7B0BDC0460020002070B50B4C207123600020082804D00D5CD4
:2033000026187571401CF8E70D34002B05D010782070641C5B1E521CF7E700BF70BDC046BE
:20332000002000200446094800688047084D6968002901D0204688472868002800D08047DF
:2033400004480068804700F05BFBC046602500204C25002064250020F8B514460091012608
:2033600086400027074D0098874209D22E60204600F020FA2E61204600F01CFA7F1CF2E763
:20338000F8BDC04610320240B0B515460446032300F0BAF8002800D0B0BD2968481E286038
:2033A0006720C0430229F7D321684A1C226009780029F1D10846B0BD10B51F300022202A76
:2033C00010D0C31E1B781B06841E24782404E318441E247824021B1904781B198B50001F15
:2033E000121DECE710BDFEE706484178032900D880300078FD2804D30348044901600449A4
:20340000416070472F03004E18110040E3887F14E3587F541CB5019007480068804701A8D6
:20342000FFF776FA016A01988847044603480068804720461CBDC0466025002064250020FC
:2034400010B5024603680020064CA34207D1D3681289D21803D28868824201D3002010BDBB
:20346000012010BD3DB8F39670B50022074B1446261D102E07D01D592C7884423446F7D173
:203480000D60002070BDD04370BDC046743D0000B0B5016801229143064B1C68002C06D0DF
:2034A000256895438D4202D208342346F5E784601860B0BD90230020B0B503460020C04316
:2034C000002B0AD4092B08D8DC00044D2B59002B03D028194068DB699847B0BDFC24002067
:2034E000B0B503460020C043002B0AD4092B08D8DC00044D2B59002B03D0281940689B6942
:203500009847B0BDFC24002070B5044605684E1B6120C043012E08DB2E789E4204D1681C65
:2035200020602046FEF7ECFE70BD801C70BDB0B504460020002B09D0D2B20D782570954288
:2035400005D0641C5B1E491C002BF6D1B0BD601CB0BD0000074880F3088800BF00BF00F030
:203560004DFA002801D0FFF7ADFD00F067F80120FFF7D8FE0090002030B514004C432500D2
:203580001C0044436419050010002900FFF7B8FD001904000D002100280030BD10B5002AD3
:2035A0000BD00C780378A34205D1521E401C491C002AF6D11C46181B10BD002010BDB0B5A0
:2035C00004C90023036043600830531C01249C4203D220C920C0641CF9E71046B0BDA06A80
:2035E000E16FCA0010188A0080182278921E059B93405B1D4A1C534399007047B0B500245D
:2036000045787F2D06D14068411810461A4600F0E3F900E0E4432046B0BD000018B52023FD
:203620009B1A04D8010000205B42994004E004009140DC402143904018BD000080B500202F
:20364000044A002A014601D001CA1146FFF796FA80BDC046D83D0000054A1368002B06D00F
:2036600011461A4608328342F7D18068086070479023002001208103044A13680B431360C3
:20368000C0031168014311607047C046003502400B4611461A4680B500F046F980BDC04656
:2036A0000A46002180B500F03FF980BDB0B50023002A05D010C820C965402B43521EF7E756
:2036C00058425841B0BD10B5C36F08C10024C36F9C4203D208CA08C1641CF8E7184610BD5C
:2036E00010B50C780378A34205D1521E401C491C002AF6D11C46181B10BD000080B501464B
:20370000024802680248904780BDC0468000000FC022002080B503480268034800219047D3
:2037200080BDC0467800000FC022002080B50A460146024803680248984780BD7C00000F4B
:20374000C0220020044C30342146FEF725FB2046FFF772F800F054F994230020B0B514469E
:203760000D460146286800F037F92868001928602046B0BD10B504C91346002B03D010C939
:2037800010C05B1EF9E7104610BD04C10122C36F5B1C9A4203D2002308C1521CF7E77047AC
:2037A0000022002903D008C81A43491EF9E750425041704703494143002902D000BF491EAC
:2037C000FAE77047AA0F000080B50A4602490B680021984780BDC046D03D00000322805808
:2037E000002804D000220A70491C401EF8E7704740B584B002AE0096FEF72CFE029A039B10
:2038000004B040BD02988000A16F0A58D2430A500298401C7047A06AE16FCA0010188A0079
:2038200080184A1CD100704710B500239A4203D0CC5CC4545B1CF9E710BD80B50B4603215D
:203840004258C11D184600F0C7F880BDA26FE06F8000295882185268002A704780B5014694
:203860000148FDF7C3FB80BD2823002040787F38022801D300207047FF20704701208003E7
:20388000014908607047C04610320240EFF3108072B6FFF7A9FDFFF75DFEFEE7002A03D0CC
:2038A00008C908C0521EF9E7704738463268910078186D1C27787047A36FE16F206FE26D10
:2038C0000091D2197047002903D0002204C0491EF9E77047032802D30020C0437047401C9F
:2038E0007047032902D30020C0437047481C70470A780270401C491C002AF9D1704700219A
:20390000425C491C002AFBD1481E70470021425C491C002AFBD1481E70470021425C491C36
:20392000002AFBD1481E704700239A4202D0C1545B1CFAE770474019001F006852420023E8
:2039400056E7A26F0832204629462B4600E0000082B00094014C019410BD00BF3D27000021
:2039600080B501460820FDF7FDFF80BD801C61412A463B4600E69259A36FE76F00977047C0
:203980009259A36FE56F0095704705460F46029A3346F1E50A68531C0B6010707047204616
:2039A00029462A4600E0000082B00094014C019410BD00BFE52E0000802280580860704768
:2039C00080B5FFF7EBFD80BD80B5FEF76BFF80BD80B5FFF71FFD80BD80B5FFF725FF80BDB6
:2039E00006C07047006870470095FFE782B00094014C019410BD00BF81070000012070471C
:203A000000BFFEE700010203040001020304000102030400010203040001020304000102CD
:203A2000030400010203040001020304000102030400010203040001020304000102030443
:203A4000010101010102020202020303030303040404040400000102030000010203000028
:203A6000010203000001020300010203040001020304000102030400010203043059301346
:203A800006072A8648CE3D020106082A8648CE3D030107034200042ACB403CE8FEED5BA46B
:203AA0004995A1A91DAEE8DBBE1937CD14FB2F245737E5953988D994B9D65AEBD7CDD53060
:203AC0008AD6FE48B24A6A810EE5F07D8B6834CC3A6AFC538EFAC17263203D3D20300043C8
:203AE0003A2F6769742F6C6F6B692F626C652D6167616D612F736F757263652F746869720F
:203B0000645F70617274792F6D6375626F6F742F626F6F742F626F6F747574696C2F7372F2
:203B2000632F6C6F616465722E63006D616C6C6F63206661696C656420696E20617373652B
:203B4000727400417373657274696F6E206661696C65642C20282573292C2066696C652001
:203B600025732C206C696E652025640A002E000000000000000101010101020202020202C7
:203B80000202020203030303030303030303040504040404050404040405040404040504B3
:203BA00004040000000000010101010108000000FCFFFFFFFFFFFFFFFFFFFFFF00000000FF
:203BC000000000000000000001000000FFFFFFFFFCFFFFFFFFFFFFFFFFFFFFFF03000000F4
:203BE000000000000000000004000000FCFFFFFF00000000080000004B60D2273E3CCE3B99
:203C0000F6B053CCB0061D65BC86987655BDEBB3E7933AAAD835C65ADFBDC42962DF9CD8DE
:203C200090308478CD05F0ACD62E21F7AB20A2E5344887041D0630DC0000000008000000AE
:203C400096C298D84539A1F4A033EB2D817D0377F240A463E5E6BCF847422CE1F2D1176B93
:203C600008000000F551BF376840B6CBCE5E316B5733CE2B169E0F7C4AEBE78E9B7F1AFE71
:203C8000E242E34F0300000000000000FFFFFFFFFBFFFFFFFEFFFFFFFFFFFFFFFDFFFFFFE6
:203CA000040000000000000008000000512563FCC2CAB9F3849E17A7ADFAE6BCFFFFFFFFC6
:203CC000FFFFFFFF00000000FFFFFFFF08000000FFFFFFFFFFFFFFFFFFFFFFFF00000000F0
:203CE000000000000000000001000000FFFFFFFF3031323334353637383961626364656665
:203D00000030313233343536373839414243444546000001000100010001000100010000FB
:203D2000010100010001000100010101010100000000000000000000000000000000020374
:203D4000040500000000000101000000000000000000000000000000000000010001000056
:203D60000101000100010001000100010001000100010000843D0000903D00009C3D0000D2
:203D800000000000007F00000000000000600000017F00000020030000A00400027F00007C
:203DA0000060000000C002002A8648CE3D030107000000007C3A0000D43D00002A8648CE46
:203DC0003D020100030301020303000001000000293900005B0000000000000000000000D6
:203DE000005500000F0112014001018F012202C0E502030F0124044F02013F8F010200450B
:203E0000FF2C0000312F0000A1FA0070F900B07D29000079F200F0E500700D2F3E842400EB
:203E20002020007515B100F114BF0214AF1EFF00001C3125031C802F0CB0003100FFF00045
:203E40004D2A00003B380000DD3700000200000094030000E03D0000942300204C3E00004D
:043E6000002000201E
:206000003DB8F396000000000001000060B3020000000000000001000000000000000000EB
:20602000FFFFFFFFFFFFFFFFFFFFFFFFFFFFFFFFFFFFFFFFFFFFFFFFFFFFFFFFFFFFFFFF80
:20604000FFFFFFFFFFFFFFFFFFFFFFFFFFFFFFFFFFFFFFFFFFFFFFFFFFFFFFFFFFFFFFFF60
:20606000FFFFFFFFFFFFFFFFFFFFFFFFFFFFFFFFFFFFFFFFFFFFFFFFFFFFFFFFFFFFFFFF40
:20608000FFFFFFFFFFFFFFFFFFFFFFFFFFFFFFFFFFFFFFFFFFFFFFFFFFFFFFFFFFFFFFFF20
:2060A000FFFFFFFFFFFFFFFFFFFFFFFFFFFFFFFFFFFFFFFFFFFFFFFFFFFFFFFFFFFFFFFF00
:2060C000FFFFFFFFFFFFFFFFFFFFFFFFFFFFFFFFFFFFFFFFFFFFFFFFFFFFFFFFFFFFFFFFE0
:2060E000FFFFFFFFFFFFFFFFFFFFFFFFFFFFFFFFFFFFFFFFFFFFFFFFFFFFFFFFFFFFFFFFC0
:20610000009000207DCD020025D9020025D9020025D9020025D9020025D9020025D9020083
:2061200025D9020025D9020025D902000BDB020025D9020025D90200115F020091A90200C9
:2061400025D9020025D9020025D9020025D9020025D9020025D9020025D9020025D902003F
:2061600025D9020025D9020025D9020025D9020025D9020025D9020025D9020025D902001F
:2061800025D9020025D9020025D9020000000000F0B591B00991064607462D3704462C34D8
:2061A000011D0123069250040F960A9100940397079309D40888897809044018002108911C
:2061C0000291109137468FE124F07EF9029027F051F920783E4A48215054154613464835C2
:2061E00020780146079A11408207D20F51184007C00F0E181C4620341421204626F0CCFF8D
:20620000267500266675A675E675324832490160324833490860334CA08D2D49C88123F03A
:206220000DFDA0862E48868010200E9028494871EE701095AE800F98408823F013FD0446AD
:20624000387821F04BFA002801D07D20C443E0B2032830460A9D00D02FE122F06BFF1C4DFC
:20626000288100276F610F9C606B103024F0AAF924F07EFD6881616B088B194AD083488BB1
:206280001084888B50842420085C8007C00F10838868032400282CD0827B1218D37B0F2211
:2062A0001A40072A20D8920001A39A589746C046F562000001630000E9620000E9620000FF
:2062C000E9620000E9620000236300002F630000F060002040140840D6BE898E005555555A
:2062E0003C20094006200940492000210D91295442E041E049200799295403240D943BE039
:2063000008462430CA8BE34B1A860A8C5A86498C99860078079908409883492029540520C8
:2063200003E049200799295402200D9024E010994F70079DCD70817B0918497C890618D08F
:20634000002739460FF05CFB3520F74A105C00280D970CD00F9840880324204011462131F8
:2063600089780904490D884201D04C201554154602E00D978424EC4D4B27E85D00280CD0CC
:2063800000232A463832AB63EB631372538193810F98406B0830012105E00F98406B08301C
:2063A0000221002213460FF08BF80A9D00280BD00222002110910D9911400C9208D0012897
:2063C00006D18324109E5FE000268324304674E00B970D9882B20892D44A10800026CB4FB8
:2063E0007E810F98426B2525505D03230340FB82505D400804273840CD4B1885505DC006AD
:20640000C00F588500290D970DD00596506825321278D1070DD1C74953073A40DB1719400D
:206420005200184008E0C14886810B9F324606460AE0C149491C00220B9FBC4EB181314674
:206440001E3121F0E9FB059A0898C00703D100203082079E17E00F98416B08684B5D9907A5
:2064600008D4B4490D9D1D405A07D31719406A00184001E0B049491C079D31829E363146F5
:2064800021F0CAFB2E460A9DA748C05D002813D00F98406B083024F05FF8002802D184215F
:2064A000A14A51710C9901729F4A916B884201D1002090630E9800E010981090E1B2288872
:2064C000AA781204821808029C4B1A4010432880120CAA700F2903D90221109A0A4310929C
:2064E000711E8E4108960F9FFF210902014003200E900002814264D1012081040491904BB5
:20650000059001020846B030099A024201915DD0104608400C90069E304618400B908948F7
:20652000C06A042855D300200D9022F07BF980B2471D3C460E9884437B4D686921461FF006
:20654000C5FA2A4605465069854204D008201099014310915561002D3DD0B908E8892E184F
:20656000103630461CF086FB6F4A0C9800280F9F17D04B20105C002813D070680F210904C1
:2065800001400E98000481420BD1304622F056FE654AC00602D535200D9911544D200599DE
:2065A0001154E8892918D279CA740019E8810420109901431091786B103024F003F80B9E2C
:2065C000ADE7109DA80700D59EE2A3E2069C264610E0554A05E0852050715B480599016067
:2065E0000F9F9079002804D0B86B5849C9681FF0D7FE069C049804407006C50F3046019933
:20660000084003D048494A22059B8B54A40C10990D430999C90712D0049931400FD144496B
:206620000988042923D13948406D3F498A69801A386340204871032000BF00BF31E009985E
:20664000000440D538484079102803D1384800881EF0E4FC26F055FC384A114008431880C9
:20666000080C987002200543002408942BE0B20512D4421E9041CA1F534253412A4F4A2204
:20668000BA5C571EBA411A430243012A66D1022003E0C0463C200940032017F059FF2249D3
:2066A00048712148407926F02CFC244A114008431880080C987002200543032000BF00BFF8
:2066C000002408940F9FF00305D5786B103023F079FF1B4806400898002800D1F9E0124A5A
:2066E0004823D056002810950B930D9434D403994D78052D00D9002507210840801E052829
:206700004ED8800002A108588746C0463C20094055670000516700009D67000099670000E0
:20672000A5670000AD670000F060002096200940062009400A8000000A80FFFFFF00FF004B
:20674000FFFFFEFFA011084030100840C0650020E80725D026252BE0054629E00229EF4F81
:2067600003D13520385C00289BD1012008904820385C002800D15EE2E94805210160B879F1
:2067800000280F9F04D0B86BE649C9681FF008FE22F0BAFC002496E7E80701D0272507E05B
:2067A000252505E001200540263501E06D0825352020105C918920F0C9FF0446E8B20C901B
:2067C00018F0B8FE002813D007998F030121099107F086F921F0DEFF3E4216D103988078A4
:2067E00000283FD0D04825F0EBFB07460A9E5DE00A9A26F0C5FDCD4908404121490226F080
:206800007BFC109D05430D9C63E00F9802991CF0AFFA07460F2822D84B20C04A105C0028A2
:206820000AD03520105C002806D00B9826F070FC002801D17D20C7430D9C0F98806BB94EB7
:20684000F1681DF091FCB54A90714A2000211154307F800701D025F059FF0A9E27E00A9E8A
:206860000D9C27E04B20AD49085C00280A9E1AD03520085C002816D0A7081D371E21384662
:206880001FF02EFE781A80009721C9004018703025F096FB07460B98A04A26F039FC00283F
:2068A00004D18227DCE726F033FB07460D9CF8B210284BD33088B1780904401839029B4AF7
:2068C000104001433180000CB0700220109D05430F9F002C00D110E190482126805D3F2435
:2068E0000440204618F026FE002822D00D961095059907F0F5F821F04DFF786B8068002591
:20690000002820D006460C950B944C24834D2F5D202026F0E9FF0146002F26D0019841186B
:20692000E03109917F48008D23F09CF9002028551CE00A9A26F024FD7C4908404121490282
:2069400026F0DAFBD8E00995744BAFE07849002088836EB20C99402901D2402028436F4A37
:20696000744F002E2BD405462BE009912B4635460D9EA87B4019C17B0F242140072912D141
:20698000477C002128460D910FF03AF8B80902285FD0012870D000280F9F604B0B9C7FD1DB
:2069A00049200D9980E00A9A26F0EAFC5F4908404121490225F0A3FF0F9F0B9C75E07F202B
:2069C0000540E8B278861079002804D028065A4941405A4801604920105C00280AD023F016
:2069E000F5F94E488279B88D5549002A06D08031084606E00998C003401C02E08007800E99
:206A000048400F9F109D26F069F926F0A7F8022000BF00BF4B4805210160002E14D40C98F2
:206A20002538099981403D4A0B9BD05C8843D05403998978002900D14BE7002800D048E75E
:206A400000980078D05444E70020F9490B9A88543FE73520F64B185C00280F9F00D16EE1CE
:206A60004920002119540A9A26F08AFCED490840B10225F044FFA0E73520ED4B185C0028A6
:206A80000F9F0B9C00D190E149200D9919540A9A26F076FCE3490840B10225F030FF04E068
:206AA00049200D991954352019540C9D786B08301A46383201212B460EF002FD06462A46BE
:206AC0002B46002E09D0701E414241410D4204D1414241411140012936D110980A9B198812
:206AE0009A7812048918CF4A1140832212020A431A80090C997002250543A8070AD5B86B85
:206B0000D349C9681FF04CFC22F0FEFA25F068FD24F0C6FE284611B0F0BDC046F060002023
:206B2000A0110840C065002088130000FF00FF009620094006200940D6BE898E40140840C9
:206B40003181000030100840089307920C950B949720C50009984019703084081D341E2155
:206B600020461FF0BDFC601A84004D20B049085C002815D00D950D464835E8798989069196
:206B800020F0E4FD09900C20069920F0DFFD0D996118099A89180C1800206871A44D01E062
:206BA00008340D46204625F00BFA0D903520285C00280FD02C46202026F096FE4821695CBF
:206BC0002A46483212790FF025F9002802D17D20C0430D9008989949088093480424448119
:206BE000796B25254A5D0E9B1A40904BC282485D400820401885485DC006C00F588550202D
:206C00008B4A105C002802D0588D204358850C9800280CD0486825310A78D10739D1884931
:206C200053072240DB1719401840520034E000208249888138E03520385C002800D130E58C
:206C40002120385C2137797809020818B9780904401880490140802900D022E57A480721E1
:206C6000016022F051FA4C207149095C0020002900D1D3E0B9780904490D0F9F7A88042393
:206C800013400B4372490B850121C9030D43089019E56C49491C0022684B998119461E317D
:206CA00020F0BAFF624A614B079800280CD0796B08684A5D91070DD4614914405207D2175C
:206CC00011401040620008E000205C490882109D0D9C0CE05B49491C0022109D0D9C574B15
:206CE000198219469E3120F097FF514A4F4BE0B2102806D30A9A26F043FB2102494B184046
:206D00001EE600244D4884830B99403159861079002804D0080648494140464801604920BE
:206D2000105C002856D023F051F8414882793F48808D4949002A51D08031084651E04920AF
:206D4000012119542F68002F65D0B87BC019C17B214007290CD1407C3F2809D8A87B28188C
:206D6000007C0B30FC21014038460EF049FE304B0F98406B08301A46383202262C460025AD
:206D800031462B460EF09CFB33462A460646B87B38180F9F007C264948318871A07B201860
:206DA000007CC871059D0B9C8BE649200121089119542868002800D18FE6786B08301A465A
:206DC000383202210D9D2B460EF07AFB0646059A089B76E60120C003401C02E08007800E77
:206DE000484025F07BFF25F0B9FE184805210160786B083023F0B0FB00280D4A01D18421FA
:206E0000517102210172916B884200D19463761EEED1102070E610980F9F5FE6089C0890DC
:206E200050E4C046FF00FF003C20094006200940F060002040140840D6BE898E9620094050
:206E40000A8000000A80FFFFA011084030100840C065002080FF1F0031810000F0B593B022
:206E6000C80302D4002400F02EFD0C4601273D043448007817F098FC002801D100F022FDDF
:206E800006460078A2280F9676D0B02801D000F016FD10A8002101802B484068002809D156
:206EA00026F0EAF826F0B4FC27494860002801D100F000FD0E970C950894224D2C4614340A
:206EC00000271822204639460D9225F060FD3179881E162801D900F0E5FC491C07918000A5
:206EE00001A10858069487464D6F0000A5780000A5780000A5780000F76F0000A578000093
:206F0000EB700000A5780000F7700000A578000057710000A5780000BB710000A578000047
:206F20007D720000A5780000B1730000A5780000A5780000A5780000E3730000A578000057
:206F40009D740000107100206870002026F094F8A8827088214623F04BFE002800D1E0E245
:206F60003089A98A884200D30846A88201200E900320079000F089FC0C957079652821D119
:206F8000FA4D0C35284626F0A7FD00282BD006460E950089B17A37460C373A460DF09EFDA3
:206FA0000546142801D0002D0CD10E98314624F024FE142D03D1B17A384625F0A7FD30462F
:206FC00026F02EFCF5480078FF280C9D0F9E01D100F075FC314623F06FFC002801D000F02E
:206FE0006EFC00F06FFCED480078ED490870ED4900220A70E8E7708823F00AFE25F0DEFDCD
:2070000012AC009418F046F90746701F0B90F01F002680B20A90A81C0990E34BB1B2002F42
:2070200000D170E20B98884200DC6CE20D910E960F9E708812A90A885B68317900243D464E
:20704000099F009701940A9F02970391294607F0FFFD00281ED1328ACF484088824219D1C4
:207060007069D149496823F0D3FF00280E9E12D0C948806900280BD10F9840880721002319
:20708000CA4A12F067FEC4498861002800D189E36C8900E00E9E0F98418912A8028811AB28
:2070A000284615F05BFA0746002CB6D0BA4A9069711C0D9BC4541546220AAB69B01C89B21D
:2070C0005A54002F06D01199AA6980B2115411A8407803E0A96982B2FF208854B24BF11C0A
:2070E000AA69361D89B2505498E7002110AA30460CF0FEF8B6E2308912A91EF02DFB00281F
:2071000000D10CE2074670880B21A84A11AB12F021FEA861002800D145E20346708812A94B
:207120000A8811A909882546347900260095019602910394394607F08BFD002800D158E2AD
:2071400007469548806917F069FE162F2C4600D1FBE13E468DE2308912A91EF0FDFA0028B6
:2071600000D1DCE13746064678880D218F4A11AB12F0F0FDA861002800D116E203467888C3
:2071800012A909880E9179893246264611AC24883D79009601AE32C611460E9A07F058FD77
:2071A000002800D12FE206467B4DA86917F036FE162E069C00D12EE25CE2708823F028FD30
:2071C0000590401E0D90A88A00221346764CB1898B4200D3CDE180B20D99814200DCC8E108
:2071E0000993B06881180B92805C49780902081880B212A91EF0B0FA0127002800D1C3E173
:2072000001460E9770880A9012AA1288636830790D9CA6B200272C46AD1C009501970296FE
:2072200003900A9807F014FD002800D0AEE1A06900280F9E254609D170880F2100235B4A77
:2072400012F088FDA861002800D128E2A98A6A885318059CA34203D30D9A521A6A8092B26E
:207260004018514C616824F06BFF6888A98A0818A882099B5B1C0B9A921CA8E7708823F05D
:20728000C7FC25F09BFC12AC009418F003F80E90B01F0B900020A91C0A91099007460E9D11
:2072A000002D00D188E10F9C608812A90A88294617F09CFE002800D080E13E4660880D9015
:2072C00012A90A8838494B6820790B9CA4B2002729460A9D00953D460197029403900D98DC
:2072E00007F0B6FC002800D06AE13746B4B2002C10D02948C18A4088021D8A4200D0A0E1F3
:2073000000190B9988422E4600DD9BE13E46224DA86910E03E460F98408811270023394658
:20732000224A12F017FD1C4DA861002800D127E26988091DE9820E9FB97A721C0155F87A9F
:20734000A969B41C92B288540F98418912A8028811AB384615F002F90E90002808D01198F5
:20736000A969A2B2885411A8407805E010710020A969A2B2FF208854F11CAA6989B2505474
:20738000341DA869A1B24018074949686A8824F0D7FE6888071982E710710020D372002085
:2073A000D27200209B75002068700020FFFF0000308912A91EF0D0F9012600280E9600D134
:2073C00062E10746007A800600D5C0E00F9D68882989EA686B896C7C002C00D11DE15225BA
:2073E0001CE170880124214623F0D6F9002800D1A0E00E9437460837388812A91EF0ACF925
:20740000002800D1D6E00646007A8006FC4C00D5DDE00F984688304622F0B0FC002806D1EF
:20742000F84822F0ABFC002800D10CE20680A2780C2151430C3100231A460C32914200D169
:2074400034E14468E35A002B1346F6D1A0180C380C263946324624F073FE069D28463946A9
:20746000324624F06DFE0F9C6088A28917210026334612F06FFCEA49C861002800D1C8E115
:207480002169A28924F05CFE6088294621F058FC00282C4600D019E2064618E234467688EA
:2074A000304622F06BFC0B90002848D0207A0128069C00D095E1D94880783C4639460A949F
:2074C000CDB2854200D3F5E00B9B5B680C246C431D5B002D00D1ECE0002F0DD0AF4200D067
:2074E00017E11B195C8895B2A54200D011E19B880A9C1C199A1804E01A19948852881219A4
:207500002F46491CDBE730041BD08808F34DA8820F984088069C214620F0A4FFA0E00126E4
:20752000A8E070883189AA8A914200D311461CF079FCB7E1142070700E260127ADE0069C28
:2075400054E125F03EFF0A26069CE44D94E012A8008825F0EFF9002800D194E003460F9891
:2075600040881222394698470646002800D08BE02CE77088069C214621F00EFC01210E9112
:20758000002800D081E18DE13E4602E0064625460E9F0F98806825F08EF9A86900287CD0A9
:2075A00017F03CFC79E0308900E0388910A90880112661E00E9E47E1099E43E0064602E054
:2075C000374606460E9D688910A908803AE012A8008825F0AFF9002800D1D8E003460F984B
:2075E0004088122231469847002800D111E706462AE10F984088294621F0E4FB00282C4689
:20760000A3D01626A1E77888069C214621F0AEFB0028B24D28D100262EE02D7900240094BE
:20762000019514F055FF162828D006460028AB4D2AD10F9A507C002800D1AAE00127264633
:2076400027E02E463804069C10D0A44DE98AB8B21EF046FFA8820F984088214620F01AFFA7
:20766000002801D1064607E0162605E0002E00D10A269A4D25F0A5FE0127EAE02746264623
:207680000F9A964D05E00E260F9A108910A908800E9F507C002800D00026069CD9E0B068B8
:2076A00025F009F901271126069CD6E00926069CB2E00846C4B2012C5DD90A98000428D0D4
:2076C0000A9880B21BF076FD002822D009900C2060430D90002427460B9845680D98A042D1
:2076E00064D02E19B16800290AD0B8B2099A1018B28824F025FDB088C719B06817F08EFB8E
:20770000002C04D000210C22304625F040F90C34E2E7002201231646704D591E70488078C7
:20772000814200D382E00B994C68A15A00297DD083420D9E06D0A0188089002801D016264C
:2077400000E018260A930F9840880E92A718BA68BB887D880095614D019614F0B9FE064655
:20776000002803D0162E5DD10020B8600E9A0C320A9B5B1CD1E70B984568AA68AB881BE01A
:207780000E98408910A90880069C3E4674E70E265AE0508825F092F90127002800D199E038
:2077A00016267AE725F00DFE1126CDE6099AAA600A9BAB800F9846882988688818240090C3
:2077C00001949BB2304614F083FE0028069C08D00646162818D10020A8600B981CF0CEFD15
:2077E0002FE00B981CF0CAFD0F984688304625F05DF901210E9100280F9E46D152E0C046C9
:2078000068700020FFFF0000288810A90880334D0CE00E9611262C46304D16E0687000205D
:20782000107100200E98205A10A908800B981CF0A5FD0127162E03D0002E069CD4D008E05A
:207840000E970F9E2EE00926069C388810A908800E9F002E15D0162E13D00F99487814286B
:207860000FD0087928751098E8822E764888214624F056FA002804D00E97012007900F9EB4
:2078800003E00E97162E0F9E0CD170880799CDB22946224614F076FA002803D02046294660
:2078A00025F034F930461EF05BFC0E980028089C0C9D04D030460830317925F027F93046B9
:2078C00023F0C6FB6C40204613B0F0BD1626034D0027BEE726460F9ADBE6C046107100207D
:2078E00068700020F0B597B004464A1C0B7818462D380D2805D81846214626F04FF817B0B3
:20790000F0BD0D910C922320C00020180E90182B129300D925E1DD204000201811901B208D
:2079200008900301E0180B9063239B00E0181090FF2113945724A400139800190A900C46C9
:207940000634139800190F90139BF03313988C300990139E8A36139F7737139A7632139DE3
:2079600067351298800002A42058139C8746C046A37A0000117B0000417B0000477B00007A
:20798000637B0000637B00006B7B0000717B0000CB7B0000DD7B0000217C0000377C00006B
:2079A0003D7C0000637B0000637B0000A77C0000637B0000757D0000A37D0000B17D000011
:2079C000D5790000D5790000B97D0000637B0000037E0000109F12981428064603D16879E0
:2079E000002800D159E10D9948788A7812021318C8780A791202141848798A7912021218A8
:207A0000C879097A09020918152E00D01CE20D9199B21B290B46089F00D83B462920C000DE
:207A20001B29064600D32646FB210E91FB2B1D4600D30E9D0F905F49FB2B0B4600D83346A6
:207A40009CB2E00829283E4600D32E460F98844200D804468C420E9B00D833468C4200D3DC
:207A60000C4697B21B2F3E4600D8089E1B2F074600D30D9FFB2E324600D30E9AFB2E0E4670
:207A800000D83E46B6B2F008292800D308920F9DAE42119F00D82E468E4200D824E2FB2209
:207AA00024E2129611970D98811C4078099D2870A81C414C022706463A46A0470146281D7F
:207AC00010903A46A0470146A81D0F903A46A0470146284608300D903A46A04701462878B5
:207AE000002813D02F46109A1288531E9BB2082B00D30823834209D33388934206D8062A94
:207B000004D32E4CA242139C00D288E33020C5E00A9D2046623005220C9924F061F8014630
:207B2000099E30460C30022224F05AF8B0892189401A80B22249884200D888E12820ADE0A8
:207B40000C980078AAE00F980078C00700D085E11A205873187B0D21012868D1FF222046B4
:207B6000B9E10E98129941726BE201209873C6E61E460A9C119B0B9D0C9800780E38082852
:207B80000F9A00D9BBE6800001A108588746C046C57B0000B9800000FF780000FF78000006
:207BA000C7800000FF780000CD800000FF780000D780000090420000E1BB0200810C0000EF
:207BC000FE7F00000320307599E620460C9917F0C9FD6879002860D0092133E220460C9986
:207BE00017F0C0FD0F9840780007109A02D4E448D0805080E3484078800600D47FE69088D5
:207C00001B280BD110881B2808D12920C000D188814203D15188814200D170E6142106E0BA
:207C20000020287068711880012018730B21204619F0ECF863E60120D87360E60F9F387C93
:207C4000012815D00D98821C40780E9908708D204000201802261146324623F0C1FF0146C6
:207C6000472080002018324623F0BAFF012038746879002811D0B87C002800D03FE6787CA5
:207C8000002800D03BE60C21204605F0D3FD002800D1DDE10120B87431E63D200E990872DA
:207CA0000120C8712BE60B92129611970F980078800700D4C2E10D99487807908E78C8780C
:207CC0000A7912021018109048798A79120210180C90C8790A7A12021518487A0890887A47
:207CE0000690CF7A087B4A7B1202121814A802808A7BCB7B1B029A1842800A7C4B7C1B029B
:207D00009A1882808A7CCB7C1B029A18C2800A7D4B7D1B029A1802818A7DC97D09028918B7
:207D20004181052025F0D9FA0028059500D17EE1300207994618380206994218208914A9B9
:207D4000079292B2ADB2009501900898029003920491B1B2109882B20C9887B220460D9244
:207D60003B4614F06EFB002800D1E9E10C9F109E1E255FE1119E863160180D9C61782823CB
:207D80000A9DE954A17801701078012800D0A5E0387801460F39022900D339E1012068731C
:207DA000ADE50F980078C00600D59BE0122046E100200A990872A2E50B9D0FAFC1CF407831
:207DC0000922104200D121E10D9948788A780240072010404870F9780140797000D122E10B
:207DE000481E084200D120E1032900D986E10220020600D119E1084200D080E1C0B240086B
:207E0000F6E73D46119F0B9E0D994B788878834209D1072018400C9A107000D12EE15A1EA4
:207E2000024200D1BCE118211E2520462A461FF0DBF8A17900222846134617F09BFAB8788D
:207E400040210143B9705AE53E46119F4FE031460120B0720021E183287050E500202870EE
:207E6000687120469C3012900120079318742046B430454F264608240C992246B847014645
:207E80003046BC300222B84701463046A43011903546AC3528462246B84710902846214685
:207EA00022F046FF3546A0350424284610992246B8472846214622F03BFF119825F02BFA71
:207EC000129825F023FA0798007B0421012800D0A7E0FF22304615F0B5FC10E5002023F092
:207EE000D1FC0CE51321ADE0089A3146109E7381F4813281B18188B27188814200D30146DE
:207F00003878A922120191420F4600D81746042800D00F46F58AF78204280DD113981BF06D
:207F2000A1F80246B08A111A481E81410E91B2827389119800780BE0F288A1B28A4200D38C
:207F40000A46109EB18A541A611E8C410E94B2827F1B791E8F41B48899B28C4200D30C46DD
:207F6000318A631A591E8B410F933482119D297901230D931AF04CFB844207D2308A09E087
:207F800048080000E6670020E1BB02002878297925F063FC139C129D0E990F430B9948800D
:207FA00033883089834200D303460F980743109E718A581A421E904173828B420B9E03D9E8
:207FC000317880220A4332700743142D15D1002F08D0A079109C218AA28AE48A0094139CA2
:207FE0001CF048FE1521204605F024FC002800D085E4A34800780D992DE03078002F01D05F
:208000000821084320210143317078E4162016E0162800D073E43546B07801210143B170AF
:208020006DE4304688E0387869E0084668E00C9F109E1A250F980078400710D40F200E99CA
:2080400048720721204605F0F5FB002800D056E48B4800780121890311F0B4F84FE40F21B8
:2080600020462A461EF0C0FFA179059880B20090B2B2BBB228461CF0D9FD40E428781628C1
:2080800005D1A1793A780020134617F073F90220B0713D4638781099307101246C710F463B
:2080A000098A13912979BA8A23461AF0B1FA1399814215D2388A18E0012020731078FD211B
:2080C000014011701BE40020207218E4287812210143297013E498781221014399700EE408
:2080E00030792979BA8A25F0B9FC0A9A7080A87840210143A9701470FFF701FC0420787032
:20810000C1B2042904D120461AF0ACFFB0827878C0B223F004F92871348A397925F09DFB75
:20812000844201D2308A03E02879397925F095FB139A68801721104613F044FFFFF7DFFBD8
:208140000F970E950A9B1E82109E5E820C989882059DDD820899197607995983149F159937
:20816000169ADF6119625A6209998E80C8800D810220087000204880A08EC11D129A118087
:20818000618E49080D9A8A4226D10F99814223D1E08E00090E9981421ED110212046CBE7BD
:2081A0007870CA7809790902891831812289891A89B2344A914200D9C0E40121B1710428EE
:2081C00010993D4600D067E720460C461AF04AFF2146A08268785FE70B98007801281199AD
:2081E00008D108780F2805D1FC2120461D4618F00DFE0AE0887A002802D008781A2839D16E
:20820000FC2120461D4613F0DDFEA079298A6A8AAB8AEC8A009418F0F9F8FFF770FB400001
:208220003D463870580078805000B8803889000138810222129D284623F0D2FC2888218944
:20824000401A80B20F49884200D977E40D9800880F990988491C109A12884A435100884285
:208260000CD90120119948740021E1830A990870FFF745FB0F20C873FE21D8E43B200DE52A
:2082800063690020FE7F0000F0B591B0044680780025102800D9B6E3800001A1085887462F
:2082A000E5820000078A0000078A0000078A0000078A00003983000053840000078A0000EF
:2082C000078A00007F840000AD840000B9840000E7840000078A00002F85000083850000E4
:2082E000AF8900006078002800D08CE324F094FE079024F063FF089021F0DCFC0BAC20708C
:208300000226102730463946079A974B984703203946089A944FB847042001212246B847D4
:2083200020783043032800D06DE3012016F07AFF024606200146B6E06078002800D062E3E7
:208340000126E178201D62890892277B00250095314009AA2B4610F0DBFC00286DD109A8FC
:20836000007822F06CFB04463E46083E701E86417E48807D800025F04BFA0790002800D176
:20838000DDE109A80690017878488078801E4242424100920898059422463B4618F094FEB4
:2083A0000BAC002714222046394624F0F0FA0698007806210691484324301021224623F067
:2083C00017FB002818D10BA8FF21102222F0B6FF002811D109A801780698484325300BAC45
:2083E00022461032042123F003FB012105980140089822461BF0C8F809A8007853218900A4
:2084000040185A49897D8900079A23F0F1FA002800D198E15548C07D002807D105988007C3
:2084200004D55348017808981CF04CFB09A8007819F0BCF8079825F0F3F9002E00D1E2E213
:208440004A488078022800D0DDE2089818F05EFFD9E2A0881EF084F825F05AF8002800D008
:20846000D1E2424C607B012800D0D6E022F016F900216173606A227D24F089FAD4E0201D2A
:20848000E17800230093012529400BAA10F040FC002800D0B7E20BA801780620484325308A
:2084A0000C340421224623F07BFEACE26078002800D1A0E000255EE2012524F01FFB0028A3
:2084C00000D1A0E22948C06A002800D190E00668002E00D18CE0E01C6189227B637B24697E
:2084E0000094B0478FE2A588277B28461DF054FB002800D186E2044624F000FB002800D035
:2085000080E2A01D617900230093012631400BAA10F0FEFB002800D1CEE014488078002843
:2085200000D05FE20521284622F071FE6AE26078062800D0F4E0A0881DF02EFB002800D1C8
:20854000EEE00A49497C491E032900D9E8E0890001A251588F46C0467585000011870000BF
:20856000078700001B870000A1C10200486F0020F7670020A38841790022184612F0DAF8D9
:20858000CEE0F74FF86A002806D04368002B03D0A08800210A469847B978A08800292FD0E5
:2085A0001DF0FAFA002800D12DE20646A07AC00715D0B01D727900230093012111401A465F
:2085C000089310F0A5FB002809D07079022806D3A08953218900B431084200D1C9E0B87B71
:2085E000022812D1A07A00070FD4A088032109E06089012106E0A079C0071BD10025BFE1B3
:208600000125052122F003FEFDE10125A08808347179224612F08EF8F5E1A07C002839D096
:2086200011F044FC0020A074502021F047FC1BF0EBF8E8E109A8002508262946324624F04B
:20864000A6F9A0881DF0A8FA002851D007466069002815D0069707901130002106220890E2
:2086600022F06CFE002800D1A1E0002706220798394622F063FE002800D180E06761069F5E
:2086800078790121014009A88171B91D062223F057FDB1E0207D0026C1B28E42C4D2616A86
:2086A000895D012906D1F0B20CF05CF8606A00218155207D761CEFE70BA8007822F0BFF926
:2086C000FF2800D18EE10246780702D4002A00D191E10C2007400C2F00D17FE1082F00D142
:2086E00086E1042F00D086E1D00700D17AE182E122F0DEFB002800D18FE0CF48007804213C
:2087000010F060FD89E0CE4800210A4603F022FCA08805211BF0EEFA02E0A0881EF074FB33
:208720000125C648C06A002800D16CE14368002B00D168E1A08862780221984763E1042039
:2087400023F0A0F85FE1079C204622F0C1FBBB48807DC1B28F4200D35CE62188002905D057
:20876000A278089822F062FDB448807D7F1C241DEFE7A088032122F04AFD089D43E105961A
:208780000798007C0121014007913E46761C08980670009707993A463B4610F0B9FA002884
:2087A00001D13006F2D13006059E00D166E76269002A069F20D00596107C0121014009A832
:2087C00081710892164611360622314623F0B8FC7879012805D138460C30B91D062223F049
:2087E000AFFCB81D0622314623F0AAFC0898007C022101437971059EA1793879FD22024065
:20880000480802230340D0183871090702D4DF21084001E0202108433871A0794107C90F92
:2088200009AAD37906401E430E43D6716169002922D00BAE102730463A4623F081FC304629
:20884000394622F075FA7F4800780D277E4EC1B28D4211D23168C9190A460D3A1278FF2AEF
:2088600007D00BA8102222F0D3FB012805D0754800786D1C1E37EAE7FF2509A88179002685
:20888000009610AA334610F043FAFF2D1DD034281BD16A48C07C012864D0002815D16A4866
:2088A00001681E226A438818401C895C0025009510AA2B4610F02CFA002806D110A8007847
:2088C0000BF050FF002800D1A0E009A88179009610AA334610F01CFA002824D01DF020FE04
:2088E00010A9087010A800785449097D884218D2A26825460C352ACD0F690095019102975B
:20890000039609A90BF02CFC0546A08815F012FA002D57D010A800780BF024FF1AF074FF46
:2089200025E0152523E060690028DBD010A8017806204843233010210BAA23F059F80028B2
:20894000D0D10BA8FF21102222F0F8FC0028C9D109A98A790120104022F012FEC2E7C046B2
:20896000486F0020A08805211BF0C4F90125A0881DF0F6FD60780B2802D1A0881EF044FA6A
:208980002E4EF06A002812D04368002B0FD0A0886278012198476078002808D1A079C00786
:2089A00005D0F06A4368A08803212A469847012522F07EFA002826D01F480078042110F070
:2089C00001FC20E01D48417DA088002902D01DF0C7FD01E01CF0B2FB3546CBE7D00701D014
:2089E000100708D461790022284611F0A3FE09E009200242F6D00BA80178A37C009628460D
:208A000018F062FB0125284611B0F0BD1AF0FCFE1DF086FD10A90870A1680891E1682369B3
:208A2000626900292F4600D00F69009201910297039509A9089A65E7F7670020486F00203B
:208A4000090400002E6A0020E0690020F0B595B00F4609780626002900D0FAE27C78012C06
:208A600000D1F6E20692BD781D2D01D01B2D1FD139490978FF2900D1EBE200261D2D07905D
:208A80007DD121F03FF9002879D005460A202856002873D00026002800D5DAE2C2B21D21DF
:208AA000079822F035FAA87A80210143A972D0E2079021F027F90024002800D1C8E2012D45
